:100000000C94FE000C941B010C941B010C941B011E
:100010000C941B010C941B010C941B010C941B01F0
:100020000C941B010C941B010C941B010C941B01E0
:100030000C941B010C941B010C941B010C941B01D0
:100040000C941B010C941B010C941B010C941B01C0
:100050000C941B010C941B010C941B010C941B01B0
:100060000C941B010C941B010C941B010C941B01A0
:100070000C941B010C941B010C941B010C941B0190
:100080000C941B010C941B010C941B010C941B0180
:100090000C941B010C941B010C941B010C941B0170
:1000A0000C941B010C941B010C941B010C941B0160
:1000B0000C941B010C941B010C941B010C941B0150
:1000C0000C941B010C941B010C941B010C941B0140
:1000D0000C941B010C941B010C941B010C941B0130
:1000E0000C941B010C941B010C941B010C941B0120
:1000F0000C941B010C941B010C941B010C941B0110
:100100000C94CE060C9463060C941B010C941B01FA
:100110000C941B010C941B010C941B010C941B01EF
:100120000C941B010C941B010C941B010C941B01DF
:100130000C941B010C941B010C941B010C941B01CF
:100140000C941B010C941B010C941B010C941B01BF
:100150000C941B010C941B010C941B010C941B01AF
:100160000C941B010C941B010C941B010C946F014B
:100170000C941B010C941D010C941B010C941B018D
:100180000C941B010C941B010C941B010C941B017F
:100190000C941B010C941B010C941B010C941B016F
:1001A0000C941B010C941B010C941B010C941B015F
:1001B0000C941B010C941B010C941B010C941B014F
:1001C0000C941B010C941B010C941B010C941B013F
:1001D0000C941B010C941B010C941B010C941B012F
:1001E0000C941B010C941B010C941B010C941B011F
:1001F0000C941B010C941B010C941B0111241FBEB9
:10020000CFEFCDBFDFE2DEBF10E2A0E0B0E2E8E278
:10021000F2E102C005900D92A832B107D9F720E2B1
:10022000A8E2B0E201C01D92AC34B207E1F70E942F
:1002300000060C9412090C9400001F920F920FB646
:100240000F921124109234200F900FBE0F901F9028
:1002500018959C01892B21F480913320882309F182
:100260008091392090913A20892BD9F490913320B4
:10027000911104C010923F2010924020EDE3F0E273
:1002800042815381242B352B22833383911102C069
:10029000128223839F5F90933320923011F4109247
:1002A000332008952091392030913A2021303105B2
:1002B000A9F4E0914420F0914520309779F08083B3
:1002C0008091442090914520019680934420909302
:1002D0004520EDE3F0E284818F5F848308951F92CF
:1002E0000F920FB60F9211242F933F934F935F936A
:1002F0006F937F938F939F93AF93BF93CF93EF931E
:10030000FF93E0EBF9E0C081808190E00E94290139
:100310008C2F90E00E945201FF91EF91CF91BF91FD
:10032000AF919F918F917F916F915F914F913F918D
:100330002F910F900FBE0F901F9018959091342021
:100340009130E1F38093B00981E0809334200895E7
:10035000CF93DF9380913F2080FF49C082FF1BC075
:100360000E94AE04C0914020C13011F40E940706E3
:10037000C23011F40E943906C33011F40E949C0669
:10038000C43011F40E94B30685E090E080933F20D2
:10039000909340202CC081FF0BC00E94AE04CDE39F
:1003A000D0E28B8190E00E943A051A821B821FC026
:1003B00083FF1DC081E090E08093392090933A2024
:1003C00080914120823098F02FE986E891E0215019
:1003D00080409040E1F700C000000E94E6041092C7
:1003E000392010923A2010923F2010924020DF9145
:1003F000CF9108950197F1F708958131910510F09B
:1004000080E190E020EA3FE0AC01429FC001439FC1
:10041000900D529F900D11240E94FA0108957F9231
:100420008F929F92AF92BF92CF92DF92EF92FF9204
:100430000F931F93CF93DF930F2EF4E4CF2EF6E0AC
:10044000DF2EF02DF60110820F2EF5E0EF2EF6E0F4
:10045000FF2EF02DC0E1F701C08306E016E0F801A1
:10046000C08380E190E00E94FD010F2EF0E37F2E1B
:10047000F02DF6017082F701C083F801C0830F2EC2
:10048000F5E48F2EF6E09F2EF02DD8E0F401D08316
:10049000F701C083F801C08381E090E00E94FD0174
:1004A0000F2EF6E4AF2EF6E0BF2EF02DF501D0832F
:1004B000F701C083F801C08385E090E00E94FD0150
:1004C000F6017082F701C083F801C083F401D08384
:1004D000F701C083F801C08381E090E00E94FD0134
:1004E000F501D083F701C083F801C08381E090E07B
:1004F0000E94FD01F6017082F701C083F801C083FC
:10050000F401D083F701C083F801C08381E090E05B
:100510000E94FD01F501D083F701C083F801C0837B
:1005200081E090E00E94FD016894772475F8F6015F
:100530007082F701C083F801C083F401D083F70112
:10054000C083F801C08381E090E00E94FD01F501C5
:10055000D083F701C083F801C08381E090E00E945E
:10056000FD01F6017082F701C083F801C083F40138
:10057000D083F701C083F801C08381E090E00E943E
:10058000FD01F501D083F701C083F801C08381E04C
:1005900090E00E94FD016894772477F8F60170825C
:1005A000F701C083F801C083F401D083F701C08351
:1005B000F801C08381E090E00E94FD01F501D08345
:1005C000F701C083F801C08381E090E00E94FD0143
:1005D000F6011082F701C083F801C083F401D083D3
:1005E000F701C083F801C08381E090E00E94FD0123
:1005F000F501D083F701C083F801C08381E090E06A
:100600000E94FD01F6017082F701C083F801C083EA
:10061000F401D083F701C083F801C08381E090E04A
:100620000E94FD01F501D083F701C083F801C0836A
:1006300081E090E00E94FD01F6011082F701C08385
:10064000F801C083F401D083F701C083F801C083AF
:1006500081E090E00E94FD01F501D083F701C083A5
:10066000F801C08381E090E00E94FD01F601C083A3
:10067000F701C083F801C083F401D083F701C08380
:10068000F801C08381E090E00E94FD01F501D08374
:10069000F701C083F801C08381E090E00E94FD0172
:1006A000F6011082F701C083F801C083F401D08302
:1006B000F701C083F801C08381E090E00E94FD0152
:1006C000F501D083F701C083F801C08381E090E099
:1006D0000E94FD0180E6F6018083F701C083F801E6
:1006E000C083F401D083F701C083F801C08381E0A7
:1006F00090E00E94FD01F501D083F701C083F8016D
:10070000C08381E090E00E94FD01F6011082F701B4
:10071000C083F801C083F401D083F701C083F801DE
:10072000C08381E090E00E94FD01F501D083F701D4
:10073000C083F801C08381E090E00E94FD0180EF5A
:10074000F6018083F701C083F801C083F401D083F0
:10075000F701C083F801C08381E090E00E94FD01B1
:10076000F501D083F701C083F801C08381E090E0F8
:100770000E94FD01DF91CF911F910F91FF90EF90AB
:10078000DF90CF90BF90AF909F908F907F90089513
:100790007F928F929F92AF92BF92CF92DF92EF9211
:1007A000FF920F931F93CF93DF93D82F807F8260A8
:1007B0000F2EF4E48F2EF6E09F2EF02DF4018083AF
:1007C0000F2EF5E0EF2EF6E0FF2EF02DC0E1F70141
:1007D000C08306E016E0F801C0830F2EF5E4AF2ECB
:1007E000F6E0BF2EF02D6894772473F8F50170823F
:1007F000F701C083F801C08381E090E00E94FD0111
:100800000F2EF6E4CF2EF6E0DF2EF02DF6017082EB
:10081000F701C083F801C08381E090E00E94FD01F0
:10082000F0E1DF9FC00111248260F4018083F701B1
:10083000C083F801C083F5017082F701C083F8011D
:10084000C08381E090E00E94FD01F6017082F70113
:10085000C083F801C08381E090E00E94FD01DF9138
:10086000CF911F910F91FF90EF90DF90CF90BF90AD
:10087000AF909F908F907F9008957F928F929F92DC
:10088000AF92BF92CF92DF92EF92FF920F931F939E
:10089000CF93DF93782E807F0F2EF4E48F2EF6E037
:1008A0009F2EF02DF40180830F2EF5E0EF2EF6E061
:1008B000FF2EF02DC0E1F701C08306E016E0F8013D
:1008C000C0830F2EF5E4AF2EF6E0BF2EF02DD8E05A
:1008D000F501D083F701C083F801C08381E090E087
:1008E0000E94FD010F2EF6E4CF2EF6E0DF2EF02D54
:1008F000F601D083F701C083F801C08381E090E066
:100900000E94FD01F0E17F9EC0011124F40180836B
:10091000F701C083F801C083F501D083F701C083DC
:10092000F801C08381E090E00E94FD01F601D083D0
:10093000F701C083F801C08381E090E00E94FD01CF
:10094000DF91CF911F910F91FF90EF90DF90CF90AB
:10095000BF90AF909F908F907F90089581E00E940C
:100960003D0408950F931F93CF93DF93009769F091
:10097000D62F8C01C0E007C0F801EC0FF11D80817B
:100980000E94C803CF5FCD17B8F3DF91CF911F91BD
:100990000F910895613039F028F0623041F06330F2
:1009A00049F00CC00BC090E0805C9F4F07C090E006
:1009B000449604C090E08C5A9F4F00C080680E940B
:1009C0003D0408958CE00E943D040895CF93DF9389
:1009D00080914120882309F44AC08131B0F40E94FB
:1009E000AE0460E080E00E94CA0490914120209112
:1009F000442030914520692FA901491B5109CA01A2
:100A00000E94B2040E94E2042AC0853240F50E948E
:100A1000AE0460E080E00E94CA04CDE3D0E29C8195
:100A2000209144203091452060E1A901491B5109E2
:100A3000CA010E94B20461E080E00E94CA046C8195
:100A400081E190E0861B9109615120914420309111
:100A50004520820F931F0E94B2040E94E20410926C
:100A6000412080914420909145200E948908DF9187
:100A7000CF9108958093440680E480930506809387
:100A800006060895F894E0E4F6E0108290E890936A
:100A90000606A8E4B6E08C918C91909305069FEF32
:100AA00090837894089580E28093050680930606EB
:100AB0000895CF930E944205C82F80913F2082FD68
:100AC0000DC081FF0BC080912820C81721F08C2F0A
:100AD00090E00E949E018C2F0E943A05CF3F69F062
:100AE000C73F59F0C0932820EDE3F0E28281938163
:100AF0008B7F82608283938307C0EDE3F0E2828183
:100B000093818D7F82839383CF9108958BEC809323
:100B10005200E0E5F0E080818860808380915100A0
:100B200083FFFCCF08ED33E0B0E0A0E404BF3C93CA
:100B300082EF80930006E5E0F6E090E89083109263
:100B400020068FEF809340069093600698E0909384
:100B500080068093440680E480838093060685E0C7
:100B60008093690693E090936B068CE080936A060D
:100B700081E080937006809371068093A20087E6DF
:100B80008093B6091092B70984E18093B3099093DA
:100B9000B50988E18093B4097894089581E090E0E4
:100BA00080933F2090934020809337200E940F0233
:100BB0000E94AE0460E080E00E94CA0460E187E128
:100BC00090E20E94B20461E080E00E94CA0460E109
:100BD00086E090E20E94B2040E94E2048EEF9FEF52
:100BE0000E943A058091352090E00E94530584E4EC
:100BF00090E00E94F107809344209093452008954F
:100C00000E9486050E94CE050E948B07FDCFCF93E0
:100C1000DF93CDE3D0E28A819B8184608A839B83CA
:100C200080EF90E00E943A058A8181FD11C0809199
:100C30003720869580933720811103C080E8809308
:100C400037208091372090E0809590950E943A055A
:100C5000EDE3F0E2828193819C012B7F2283338339
:100C600080FD04C08EE190E00E949E01DF91CF9153
:100C70000895EDE3F0E2828193818460828393831F
:100C800081FD19C080913720880F80933720811112
:100C900003C081E0809337208091372090E08095D9
:100CA00090950E943A0580913F2080FD04C08EE21D
:100CB00090E00E949E01EDE3F0E2828193818B7FC0
:100CC0008283938308951F920F920FB60F9211247F
:100CD0002F933F934F935F936F937F938F939F9344
:100CE000AF93BF93EF93FF93EDE3F0E282819381A3
:100CF0008E7F828393838091680680FFFCCF0E9461
:100D000007068091680681FD06C08091680681FF14
:100D1000FCCF0E943906FF91EF91BF91AF919F9157
:100D20008F917F916F915F914F913F912F910F9094
:100D30000FBE0F901F901895EDE3F0E28281938132
:100D400084608283938381FD0DC020914320222300
:100D500019F021502093432080FD04C08EE390E0E1
:100D60000E949E010895EDE3F0E282819381846008
:100D70008283938381FD11C020914320243120F090
:100D800024E12093432003C02F5F2093432080FD64
:100D900004C08EE490E00E949E0108951F920F927D
:100DA0000FB60F9211242F933F934F935F936F933E
:100DB0007F938F939F93AF93BF93EF93FF93EDE355
:100DC000F0E2828193818E7F828393838091680693
:100DD00082FD06C08091680682FFFCCF0E949C06BF
:100DE0008091680683FD06C08091680683FFFCCF72
:100DF0000E94B306FF91EF91BF91AF919F918F91A8
:100E00007F916F915F914F913F912F910F900FBE06
:100E10000F901F9018950197F1F7089580E991E0E0
:100E20000E940B0780913E2080FD03C0816080936B
:100E30003E20809131209091322001968093312084
:100E4000909332200B9758F080913E2081FD07C08F
:100E5000826080933E201092312010923220809147
:100E60002F2090913020019680932F209093302056
:100E7000C29758F080913E2082FD07C08460809325
:100E80003E2010922F201092302080912D209091A2
:100E90002E20019680932D2090932E20843691054C
:100EA00058F080913E2083FD07C0886080933E20EB
:100EB00010922D2010922E2080912B2090912C208A
:100EC000019680932B2090932C20883E934058F0DD
:100ED00080913E2084FD07C0806180933E20109267
:100EE0002B2010922C208091292090912A2001966D
:100EF0008093292090932A20803D974058F080913C
:100F00003E2085FD07C0806280933E2010922920FC
:100F100010922A200895CF93DF930E940E078091AC
:100F20003E2080FF03C08E7F80933E2080913E2034
:100F300081FF03C08D7F80933E2080913E2082FF01
:100F400007C00E94A801EDE3F0E281818B7F8183DD
:100F500080913E2083FF3BC0CDE3D0E2877F898331
:100F60000E945905809146209091472001968093D8
:100F70004620909347202A8122FF1FC040914320A2
:100F80004423A1F024E130E0241B310982179307A8
:100F900040F48091372090E0809590950E943A052A
:100FA0000CC08FEF90E00E943A0507C08091372077
:100FB00090E0809590950E943A058091462090910E
:100FC0004720469720F010924620109247208091AB
:100FD0003E2084FF03C08F7E80933E20DF91CF911F
:100FE00008950F931F93CF93DF938230910510F4F0
:100FF00082E090E0E0914A20F0914B2020E030E048
:10100000A0E0B0E0309719F1408151810281138155
:1010100048175907C8F08417950769F4109731F0FD
:1010200012960C93129713961C9327C000934A2094
:1010300010934B2022C02115310519F04217530798
:1010400018F49A01BD01EF01DF01F801DBCF211592
:101050003105F9F0281B390B2430310580F48A81E1
:101060009B816115710521F0FB018283938304C08C
:1010700080934A2090934B20FE01329644C0FE019B
:10108000E20FF31F81939193225031092883398312
:101090003AC02091482030914920232B41F42091DF
:1010A0000220309103202093482030934920209142
:1010B0000020309101202115310541F42DB73EB7B4
:1010C0004091042050910520241B350BE0914820CD
:1010D000F0914920E217F307A0F42E1B3F0B2817CD
:1010E000390778F0AC014E5F5F4F2417350748F0A1
:1010F0004E0F5F1F40934820509349208193919356
:1011000002C0E0E0F0E0CF01DF91CF911F910F919D
:101110000895CF93DF93009709F481C0FC013297C3
:1011200012821382A0914A20B0914B20109781F433
:1011300020813181820F931F2091482030914920D6
:101140002817390751F5E0934820F093492067C0EC
:10115000ED0120E030E0CE17DF0740F44A815B81EB
:101160009E0141155105F1F0EA01F5CFC283D38309
:1011700040815181840F951FC817D90759F4888180
:101180009981840F951F0296808391838A819B8128
:10119000828393832115310529F4E0934A20F0934B
:1011A0004B203DC0E901EA83FB8349915991C40F6B
:1011B000D51FEC17FD0761F480819181840F951F85
:1011C0000296E90188839983828193818A839B8334
:1011D000E0E0F0E012968D919C911397009719F042
:1011E000FD01DC01F7CF8D919C9111979D012E5F40
:1011F0003F4F820F931F209148203091492028179C
:10120000390769F4309729F410924A2010924B2044
:1012100002C012821382A0934820B0934920DF912C
:08122000CF910895F894FFCF6F
:1012280000004C202000426C7565746F6F74682054
:10123800202020202020004D696B726F6B6F6E7428
:08124800726F6C6572792000E1
:00000001FF
